{
  "contractName": "SolnSquareVerifier",
  "abi": [
    {
      "anonymous": false,
      "inputs": [
        {
          "indexed": true,
          "internalType": "address",
          "name": "owner",
          "type": "address"
        },
        {
          "indexed": true,
          "internalType": "address",
          "name": "approved",
          "type": "address"
        },
        {
          "indexed": true,
          "internalType": "uint256",
          "name": "tokenId",
          "type": "uint256"
        }
      ],
      "name": "Approval",
      "type": "event"
    },
    {
      "anonymous": false,
      "inputs": [
        {
          "indexed": true,
          "internalType": "address",
          "name": "owner",
          "type": "address"
        },
        {
          "indexed": true,
          "internalType": "address",
          "name": "operator",
          "type": "address"
        },
        {
          "indexed": false,
          "internalType": "bool",
          "name": "approved",
          "type": "bool"
        }
      ],
      "name": "ApprovalForAll",
      "type": "event"
    },
    {
      "anonymous": false,
      "inputs": [
        {
          "indexed": false,
          "internalType": "address",
          "name": "caller",
          "type": "address"
        }
      ],
      "name": "Paused",
      "type": "event"
    },
    {
      "anonymous": false,
      "inputs": [
        {
          "indexed": false,
          "internalType": "bytes32",
          "name": "key",
          "type": "bytes32"
        },
        {
          "indexed": false,
          "internalType": "address",
          "name": "verifierAddress",
          "type": "address"
        }
      ],
      "name": "SolutionAdded",
      "type": "event"
    },
    {
      "anonymous": false,
      "inputs": [
        {
          "indexed": true,
          "internalType": "address",
          "name": "from",
          "type": "address"
        },
        {
          "indexed": true,
          "internalType": "address",
          "name": "to",
          "type": "address"
        },
        {
          "indexed": true,
          "internalType": "uint256",
          "name": "tokenId",
          "type": "uint256"
        }
      ],
      "name": "Transfer",
      "type": "event"
    },
    {
      "anonymous": false,
      "inputs": [
        {
          "indexed": false,
          "internalType": "address",
          "name": "newOwner",
          "type": "address"
        }
      ],
      "name": "TransferOfOwnership",
      "type": "event"
    },
    {
      "anonymous": false,
      "inputs": [
        {
          "indexed": false,
          "internalType": "address",
          "name": "caller",
          "type": "address"
        }
      ],
      "name": "Unpaused",
      "type": "event"
    },
    {
      "constant": false,
      "inputs": [
        {
          "internalType": "bytes32",
          "name": "_myid",
          "type": "bytes32"
        },
        {
          "internalType": "string",
          "name": "_result",
          "type": "string"
        }
      ],
      "name": "__callback",
      "outputs": [],
      "payable": false,
      "stateMutability": "nonpayable",
      "type": "function"
    },
    {
      "constant": false,
      "inputs": [
        {
          "internalType": "bytes32",
          "name": "_myid",
          "type": "bytes32"
        },
        {
          "internalType": "string",
          "name": "_result",
          "type": "string"
        },
        {
          "internalType": "bytes",
          "name": "_proof",
          "type": "bytes"
        }
      ],
      "name": "__callback",
      "outputs": [],
      "payable": false,
      "stateMutability": "nonpayable",
      "type": "function"
    },
    {
      "constant": true,
      "inputs": [
        {
          "internalType": "address",
          "name": "spender",
          "type": "address"
        },
        {
          "internalType": "uint256",
          "name": "tokenId",
          "type": "uint256"
        }
      ],
      "name": "_isApprovedOrOwner",
      "outputs": [
        {
          "internalType": "bool",
          "name": "",
          "type": "bool"
        }
      ],
      "payable": false,
      "stateMutability": "view",
      "type": "function"
    },
    {
      "constant": false,
      "inputs": [
        {
          "internalType": "address",
          "name": "to",
          "type": "address"
        },
        {
          "internalType": "uint256",
          "name": "tokenId",
          "type": "uint256"
        }
      ],
      "name": "approve",
      "outputs": [],
      "payable": false,
      "stateMutability": "nonpayable",
      "type": "function"
    },
    {
      "constant": true,
      "inputs": [
        {
          "internalType": "address",
          "name": "owner",
          "type": "address"
        }
      ],
      "name": "balanceOf",
      "outputs": [
        {
          "internalType": "uint256",
          "name": "",
          "type": "uint256"
        }
      ],
      "payable": false,
      "stateMutability": "view",
      "type": "function"
    },
    {
      "constant": true,
      "inputs": [
        {
          "internalType": "uint256",
          "name": "tokenId",
          "type": "uint256"
        }
      ],
      "name": "getApproved",
      "outputs": [
        {
          "internalType": "address",
          "name": "",
          "type": "address"
        }
      ],
      "payable": false,
      "stateMutability": "view",
      "type": "function"
    },
    {
      "constant": true,
      "inputs": [],
      "name": "getBaseTokenURI",
      "outputs": [
        {
          "internalType": "string",
          "name": "",
          "type": "string"
        }
      ],
      "payable": false,
      "stateMutability": "view",
      "type": "function"
    },
    {
      "constant": true,
      "inputs": [],
      "name": "getName",
      "outputs": [
        {
          "internalType": "string",
          "name": "",
          "type": "string"
        }
      ],
      "payable": false,
      "stateMutability": "view",
      "type": "function"
    },
    {
      "constant": true,
      "inputs": [],
      "name": "getOwner",
      "outputs": [
        {
          "internalType": "address",
          "name": "",
          "type": "address"
        }
      ],
      "payable": false,
      "stateMutability": "view",
      "type": "function"
    },
    {
      "constant": true,
      "inputs": [],
      "name": "getSymbol",
      "outputs": [
        {
          "internalType": "string",
          "name": "",
          "type": "string"
        }
      ],
      "payable": false,
      "stateMutability": "view",
      "type": "function"
    },
    {
      "constant": true,
      "inputs": [
        {
          "internalType": "address",
          "name": "owner",
          "type": "address"
        },
        {
          "internalType": "address",
          "name": "operator",
          "type": "address"
        }
      ],
      "name": "isApprovedForAll",
      "outputs": [
        {
          "internalType": "bool",
          "name": "",
          "type": "bool"
        }
      ],
      "payable": false,
      "stateMutability": "view",
      "type": "function"
    },
    {
      "constant": false,
      "inputs": [
        {
          "internalType": "address",
          "name": "to",
          "type": "address"
        },
        {
          "internalType": "uint256",
          "name": "tokenId",
          "type": "uint256"
        }
      ],
      "name": "mint",
      "outputs": [],
      "payable": false,
      "stateMutability": "nonpayable",
      "type": "function"
    },
    {
      "constant": true,
      "inputs": [
        {
          "internalType": "uint256",
          "name": "tokenId",
          "type": "uint256"
        }
      ],
      "name": "ownerOf",
      "outputs": [
        {
          "internalType": "address",
          "name": "",
          "type": "address"
        }
      ],
      "payable": false,
      "stateMutability": "view",
      "type": "function"
    },
    {
      "constant": false,
      "inputs": [
        {
          "internalType": "address",
          "name": "from",
          "type": "address"
        },
        {
          "internalType": "address",
          "name": "to",
          "type": "address"
        },
        {
          "internalType": "uint256",
          "name": "tokenId",
          "type": "uint256"
        }
      ],
      "name": "safeTransferFrom",
      "outputs": [],
      "payable": false,
      "stateMutability": "nonpayable",
      "type": "function"
    },
    {
      "constant": false,
      "inputs": [
        {
          "internalType": "address",
          "name": "from",
          "type": "address"
        },
        {
          "internalType": "address",
          "name": "to",
          "type": "address"
        },
        {
          "internalType": "uint256",
          "name": "tokenId",
          "type": "uint256"
        },
        {
          "internalType": "bytes",
          "name": "_data",
          "type": "bytes"
        }
      ],
      "name": "safeTransferFrom",
      "outputs": [],
      "payable": false,
      "stateMutability": "nonpayable",
      "type": "function"
    },
    {
      "constant": false,
      "inputs": [
        {
          "internalType": "address",
          "name": "to",
          "type": "address"
        },
        {
          "internalType": "bool",
          "name": "approved",
          "type": "bool"
        }
      ],
      "name": "setApprovalForAll",
      "outputs": [],
      "payable": false,
      "stateMutability": "nonpayable",
      "type": "function"
    },
    {
      "constant": false,
      "inputs": [
        {
          "internalType": "bool",
          "name": "status",
          "type": "bool"
        }
      ],
      "name": "setPaused",
      "outputs": [],
      "payable": false,
      "stateMutability": "nonpayable",
      "type": "function"
    },
    {
      "constant": true,
      "inputs": [
        {
          "internalType": "bytes4",
          "name": "interfaceId",
          "type": "bytes4"
        }
      ],
      "name": "supportsInterface",
      "outputs": [
        {
          "internalType": "bool",
          "name": "",
          "type": "bool"
        }
      ],
      "payable": false,
      "stateMutability": "view",
      "type": "function"
    },
    {
      "constant": true,
      "inputs": [
        {
          "internalType": "uint256",
          "name": "index",
          "type": "uint256"
        }
      ],
      "name": "tokenByIndex",
      "outputs": [
        {
          "internalType": "uint256",
          "name": "",
          "type": "uint256"
        }
      ],
      "payable": false,
      "stateMutability": "view",
      "type": "function"
    },
    {
      "constant": true,
      "inputs": [
        {
          "internalType": "address",
          "name": "owner",
          "type": "address"
        },
        {
          "internalType": "uint256",
          "name": "index",
          "type": "uint256"
        }
      ],
      "name": "tokenOfOwnerByIndex",
      "outputs": [
        {
          "internalType": "uint256",
          "name": "",
          "type": "uint256"
        }
      ],
      "payable": false,
      "stateMutability": "view",
      "type": "function"
    },
    {
      "constant": true,
      "inputs": [
        {
          "internalType": "uint256",
          "name": "tokenId",
          "type": "uint256"
        }
      ],
      "name": "tokenURI",
      "outputs": [
        {
          "internalType": "string",
          "name": "",
          "type": "string"
        }
      ],
      "payable": false,
      "stateMutability": "view",
      "type": "function"
    },
    {
      "constant": true,
      "inputs": [],
      "name": "totalSupply",
      "outputs": [
        {
          "internalType": "uint256",
          "name": "",
          "type": "uint256"
        }
      ],
      "payable": false,
      "stateMutability": "view",
      "type": "function"
    },
    {
      "constant": false,
      "inputs": [
        {
          "internalType": "address",
          "name": "from",
          "type": "address"
        },
        {
          "internalType": "address",
          "name": "to",
          "type": "address"
        },
        {
          "internalType": "uint256",
          "name": "tokenId",
          "type": "uint256"
        }
      ],
      "name": "transferFrom",
      "outputs": [],
      "payable": false,
      "stateMutability": "nonpayable",
      "type": "function"
    },
    {
      "constant": false,
      "inputs": [
        {
          "internalType": "address",
          "name": "newOwner",
          "type": "address"
        }
      ],
      "name": "transferOwnership",
      "outputs": [],
      "payable": false,
      "stateMutability": "nonpayable",
      "type": "function"
    },
    {
      "constant": true,
      "inputs": [
        {
          "internalType": "uint256[2]",
          "name": "a",
          "type": "uint256[2]"
        },
        {
          "internalType": "uint256[2][2]",
          "name": "b",
          "type": "uint256[2][2]"
        },
        {
          "internalType": "uint256[2]",
          "name": "c",
          "type": "uint256[2]"
        },
        {
          "internalType": "uint256[2]",
          "name": "input",
          "type": "uint256[2]"
        }
      ],
      "name": "verifyTx",
      "outputs": [
        {
          "internalType": "bool",
          "name": "r",
          "type": "bool"
        }
      ],
      "payable": false,
      "stateMutability": "view",
      "type": "function"
    },
    {
      "constant": false,
      "inputs": [
        {
          "internalType": "address",
          "name": "to",
          "type": "address"
        },
        {
          "internalType": "uint256",
          "name": "tokenId",
          "type": "uint256"
        },
        {
          "internalType": "uint256[2]",
          "name": "a",
          "type": "uint256[2]"
        },
        {
          "internalType": "uint256[2][2]",
          "name": "b",
          "type": "uint256[2][2]"
        },
        {
          "internalType": "uint256[2]",
          "name": "c",
          "type": "uint256[2]"
        },
        {
          "internalType": "uint256[2]",
          "name": "inputs",
          "type": "uint256[2]"
        }
      ],
      "name": "mintVerify",
      "outputs": [],
      "payable": false,
      "stateMutability": "nonpayable",
      "type": "function"
    }
  ],
  "bytecode": "0x608060405260006014556040518060400160405280600981526020017f436c696666436f696e00000000000000000000000000000000000000000000008152506040518060400160405280600381526020017f43464300000000000000000000000000000000000000000000000000000000008152506040518060600160405280603f815260200162004ce3603f9139336000806101000a81548173ffffffffffffffffffffffffffffffffffffffff021916908373ffffffffffffffffffffffffffffffffffffffff1602179055507fef07b8974749e71f00d3d636be1c93ba08da679f7eaf39bc980ae00df8f5a3686000809054906101000a900473ffffffffffffffffffffffffffffffffffffffff16604051808273ffffffffffffffffffffffffffffffffffffffff1673ffffffffffffffffffffffffffffffffffffffff16815260200191505060405180910390a160008060146101000a81548160ff021916908315150217905550620001856301ffc9a760e01b6200026260201b60201c565b6200019d6380ac58cd60e01b6200026260201b60201c565b620001b563780e9d6360e01b6200026260201b60201c565b82600f9080519060200190620001cd9291906200036b565b508160109080519060200190620001e69291906200036b565b508060119080519060200190620001ff9291906200036b565b5062000218635b5e139f60e01b6200026260201b60201c565b50505033601360006101000a81548173ffffffffffffffffffffffffffffffffffffffff021916908373ffffffffffffffffffffffffffffffffffffffff1602179055506200041a565b63ffffffff60e01b817bffffffffffffffffffffffffffffffffffffffffffffffffffffffff19161415620002ff576040517f08c379a00000000000000000000000000000000000000000000000000000000081526004018080602001828103825260148152602001807f496e76616c696420696e7465726661636520494400000000000000000000000081525060200191505060405180910390fd5b6001806000837bffffffffffffffffffffffffffffffffffffffffffffffffffffffff19167bffffffffffffffffffffffffffffffffffffffffffffffffffffffff1916815260200190815260200160002060006101000a81548160ff02191690831515021790555050565b828054600181600116156101000203166002900490600052602060002090601f016020900481019282601f10620003ae57805160ff1916838001178555620003df565b82800160010185558215620003df579182015b82811115620003de578251825591602001919060010190620003c1565b5b509050620003ee9190620003f2565b5090565b6200041791905b8082111562000413576000816000905550600101620003f9565b5090565b90565b6148b9806200042a6000396000f3fe608060405234801561001057600080fd5b506004361061018e5760003560e01c80634cdc9549116100de578063a22cb46511610097578063c87b56dd11610071578063c87b56dd14610cbe578063e96adf2a14610d65578063e985e9c514610ef0578063f2fde38b14610f6c5761018e565b8063a22cb46514610ae6578063b88d4fde14610b36578063bdc32be014610c3b5761018e565b80634cdc9549146107b55780634f6ccce71461081b578063621e9ec01461085d5780636352211e146109d657806370a0823114610a44578063893d20e814610a9c5761018e565b806318160ddd1161014b5780632f745c59116101255780632f745c591461053b57806338bbfa501461059d57806340c10f19146106f957806342842e0e146107475761018e565b806318160ddd146103ea57806323b872dd1461040857806327dc297e146104765761018e565b806301ffc9a714610193578063081812fc146101f8578063095ea7b31461026657806315070401146102b457806316c38b3c1461033757806317d7de7c14610367575b600080fd5b6101de600480360360208110156101a957600080fd5b8101908080357bffffffffffffffffffffffffffffffffffffffffffffffffffffffff19169060200190929190505050610fb0565b604051808215151515815260200191505060405180910390f35b6102246004803603602081101561020e57600080fd5b8101908080359060200190929190505050611018565b604051808273ffffffffffffffffffffffffffffffffffffffff1673ffffffffffffffffffffffffffffffffffffffff16815260200191505060405180910390f35b6102b26004803603604081101561027c57600080fd5b81019080803573ffffffffffffffffffffffffffffffffffffffff16906020019092919080359060200190929190505050611055565b005b6102bc611238565b6040518080602001828103825283818151815260200191508051906020019080838360005b838110156102fc5780820151818401526020810190506102e1565b50505050905090810190601f1680156103295780820380516001836020036101000a031916815260200191505b509250505060405180910390f35b6103656004803603602081101561034d57600080fd5b810190808035151590602001909291905050506112da565b005b61036f6114e9565b6040518080602001828103825283818151815260200191508051906020019080838360005b838110156103af578082015181840152602081019050610394565b50505050905090810190601f1680156103dc5780820380516001836020036101000a031916815260200191505b509250505060405180910390f35b6103f261158b565b6040518082815260200191505060405180910390f35b6104746004803603606081101561041e57600080fd5b81019080803573ffffffffffffffffffffffffffffffffffffffff169060200190929190803573ffffffffffffffffffffffffffffffffffffffff16906020019092919080359060200190929190505050611598565b005b6105396004803603604081101561048c57600080fd5b8101908080359060200190929190803590602001906401000000008111156104b357600080fd5b8201836020820111156104c557600080fd5b803590602001918460018302840111640100000000831117156104e757600080fd5b91908080601f016020809104026020016040519081016040528093929190818152602001838380828437600081840152601f19601f820116905080830192505050505050509192919290505050611624565b005b6105876004803603604081101561055157600080fd5b81019080803573ffffffffffffffffffffffffffffffffffffffff16906020019092919080359060200190929190505050611667565b6040518082815260200191505060405180910390f35b6106f7600480360360608110156105b357600080fd5b8101908080359060200190929190803590602001906401000000008111156105da57600080fd5b8201836020820111156105ec57600080fd5b8035906020019184600183028401116401000000008311171561060e57600080fd5b91908080601f016020809104026020016040519081016040528093929190818152602001838380828437600081840152601f19601f8201169050808301925050505050505091929192908035906020019064010000000081111561067157600080fd5b82018360208201111561068357600080fd5b803590602001918460018302840111640100000000831117156106a557600080fd5b91908080601f016020809104026020016040519081016040528093929190818152602001838380828437600081840152601f19601f820116905080830192505050505050509192919290505050611743565b005b6107456004803603604081101561070f57600080fd5b81019080803573ffffffffffffffffffffffffffffffffffffffff16906020019092919080359060200190929190505050611748565b005b6107b36004803603606081101561075d57600080fd5b81019080803573ffffffffffffffffffffffffffffffffffffffff169060200190929190803573ffffffffffffffffffffffffffffffffffffffff16906020019092919080359060200190929190505050611887565b005b610801600480360360408110156107cb57600080fd5b81019080803573ffffffffffffffffffffffffffffffffffffffff169060200190929190803590602001909291905050506118a7565b604051808215151515815260200191505060405180910390f35b6108476004803603602081101561083157600080fd5b810190808035906020019092919050505061193c565b6040518082815260200191505060405180910390f35b6109bc600480360361014081101561087457600080fd5b8101908080604001906002806020026040519081016040528092919082600260200280828437600081840152601f19601f82011690508083019250505050505091929192908060800190600280602002604051908101604052809291906000905b82821015610929578382604002016002806020026040519081016040528092919082600260200280828437600081840152601f19601f820116905080830192505050505050815260200190600101906108d5565b50505050919291929080604001906002806020026040519081016040528092919082600260200280828437600081840152601f19601f820116905080830192505050505050919291929080604001906002806020026040519081016040528092919082600260200280828437600081840152601f19601f82011690508083019250505050505091929192905050506119d9565b604051808215151515815260200191505060405180910390f35b610a02600480360360208110156109ec57600080fd5b8101908080359060200190929190505050611bd5565b604051808273ffffffffffffffffffffffffffffffffffffffff1673ffffffffffffffffffffffffffffffffffffffff16815260200191505060405180910390f35b610a8660048036036020811015610a5a57600080fd5b81019080803573ffffffffffffffffffffffffffffffffffffffff169060200190929190505050611c12565b6040518082815260200191505060405180910390f35b610aa4611d04565b604051808273ffffffffffffffffffffffffffffffffffffffff1673ffffffffffffffffffffffffffffffffffffffff16815260200191505060405180910390f35b610b3460048036036040811015610afc57600080fd5b81019080803573ffffffffffffffffffffffffffffffffffffffff169060200190929190803515159060200190929190505050611d2d565b005b610c3960048036036080811015610b4c57600080fd5b81019080803573ffffffffffffffffffffffffffffffffffffffff169060200190929190803573ffffffffffffffffffffffffffffffffffffffff1690602001909291908035906020019092919080359060200190640100000000811115610bb357600080fd5b820183602082011115610bc557600080fd5b80359060200191846001830284011164010000000083111715610be757600080fd5b91908080601f016020809104026020016040519081016040528093929190818152602001838380828437600081840152601f19601f820116905080830192505050505050509192919290505050611eb3565b005b610c43611f42565b6040518080602001828103825283818151815260200191508051906020019080838360005b83811015610c83578082015181840152602081019050610c68565b50505050905090810190601f168015610cb05780820380516001836020036101000a031916815260200191505b509250505060405180910390f35b610cea60048036036020811015610cd457600080fd5b8101908080359060200190929190505050611fe4565b6040518080602001828103825283818151815260200191508051906020019080838360005b83811015610d2a578082015181840152602081019050610d0f565b50505050905090810190601f168015610d575780820380516001836020036101000a031916815260200191505b509250505060405180910390f35b610eee6004803603610180811015610d7c57600080fd5b81019080803573ffffffffffffffffffffffffffffffffffffffff1690602001909291908035906020019092919080604001906002806020026040519081016040528092919082600260200280828437600081840152601f19601f82011690508083019250505050505091929192908060800190600280602002604051908101604052809291906000905b82821015610e5b578382604002016002806020026040519081016040528092919082600260200280828437600081840152601f19601f82011690508083019250505050505081526020019060010190610e07565b50505050919291929080604001906002806020026040519081016040528092919082600260200280828437600081840152601f19601f820116905080830192505050505050919291929080604001906002806020026040519081016040528092919082600260200280828437600081840152601f19601f8201169050808301925050505050509192919290505050612114565b005b610f5260048036036040811015610f0657600080fd5b81019080803573ffffffffffffffffffffffffffffffffffffffff169060200190929190803573ffffffffffffffffffffffffffffffffffffffff16906020019092919050505061234c565b604051808215151515815260200191505060405180910390f35b610fae60048036036020811015610f8257600080fd5b81019080803573ffffffffffffffffffffffffffffffffffffffff1690602001909291905050506123e0565b005b600060016000837bffffffffffffffffffffffffffffffffffffffffffffffffffffffff19167bffffffffffffffffffffffffffffffffffffffffffffffffffffffff1916815260200190815260200160002060009054906101000a900460ff169050919050565b60006003600083815260200190815260200160002060009054906101000a900473ffffffffffffffffffffffffffffffffffffffff169050919050565b61105e81611bd5565b73ffffffffffffffffffffffffffffffffffffffff168273ffffffffffffffffffffffffffffffffffffffff1614156110e2576040517f08c379a00000000000000000000000000000000000000000000000000000000081526004018080602001828103825260298152602001806147d36029913960400191505060405180910390fd5b6110eb81611bd5565b73ffffffffffffffffffffffffffffffffffffffff163373ffffffffffffffffffffffffffffffffffffffff16148061112a5750611129338361234c565b5b61117f576040517f08c379a00000000000000000000000000000000000000000000000000000000081526004018080602001828103825260498152602001806147406049913960600191505060405180910390fd5b816003600083815260200190815260200160002060006101000a81548173ffffffffffffffffffffffffffffffffffffffff021916908373ffffffffffffffffffffffffffffffffffffffff160217905550808273ffffffffffffffffffffffffffffffffffffffff166111f283611bd5565b73ffffffffffffffffffffffffffffffffffffffff167f8c5be1e5ebec7d5bd14f71427d1e84f3dd0314c0f7b2291e5b200ac8c7c3b92560405160405180910390a45050565b606060108054600181600116156101000203166002900480601f0160208091040260200160405190810160405280929190818152602001828054600181600116156101000203166002900480156112d05780601f106112a5576101008083540402835291602001916112d0565b820191906000526020600020905b8154815290600101906020018083116112b357829003601f168201915b5050505050905090565b6000809054906101000a900473ffffffffffffffffffffffffffffffffffffffff1673ffffffffffffffffffffffffffffffffffffffff163373ffffffffffffffffffffffffffffffffffffffff161461137f576040517f08c379a00000000000000000000000000000000000000000000000000000000081526004018080602001828103825260258152602001806147ae6025913960400191505060405180910390fd5b801515600060149054906101000a900460ff16151514156113eb576040517f08c379a00000000000000000000000000000000000000000000000000000000081526004018080602001828103825260408152602001806147fc6040913960400191505060405180910390fd5b80600060146101000a81548160ff021916908315150217905550600060149054906101000a900460ff1615611482577f62e78cea01bee320cd4e420270b5ea74000d11b0c9f74754ebdbfc544b05a25833604051808273ffffffffffffffffffffffffffffffffffffffff1673ffffffffffffffffffffffffffffffffffffffff16815260200191505060405180910390a16114e6565b7f5db9ee0a495bf2e6ff9c91a7834c1ba4fdd244a5e8aa4e537bd38aeae4b073aa33604051808273ffffffffffffffffffffffffffffffffffffffff1673ffffffffffffffffffffffffffffffffffffffff16815260200191505060405180910390a15b50565b6060600f8054600181600116156101000203166002900480601f0160208091040260200160405190810160405280929190818152602001828054600181600116156101000203166002900480156115815780601f1061155657610100808354040283529160200191611581565b820191906000526020600020905b81548152906001019060200180831161156457829003601f168201915b5050505050905090565b6000600880549050905090565b6115a233826118a7565b611614576040517f08c379a000000000000000000000000000000000000000000000000000000000815260040180806020018281038252601e8152602001807f4e6f7420417070726f766564206f72204f776e6572206f6620746f6b656e000081525060200191505060405180910390fd5b61161f8383836125d2565b505050565b611663828260006040519080825280601f01601f19166020018201604052801561165d5781602001600182028038833980820191505090505b50611743565b5050565b600061167283611c12565b82106116e6576040517f08c379a000000000000000000000000000000000000000000000000000000000815260040180806020018281038252600d8152602001807f496e76616c696420696e6465780000000000000000000000000000000000000081525060200191505060405180910390fd5b600660008473ffffffffffffffffffffffffffffffffffffffff1673ffffffffffffffffffffffffffffffffffffffff168152602001908152602001600020828154811061173057fe5b9060005260206000200154905092915050565b505050565b6000809054906101000a900473ffffffffffffffffffffffffffffffffffffffff1673ffffffffffffffffffffffffffffffffffffffff163373ffffffffffffffffffffffffffffffffffffffff16146117ed576040517f08c379a00000000000000000000000000000000000000000000000000000000081526004018080602001828103825260258152602001806147ae6025913960400191505060405180910390fd5b600060149054906101000a900460ff1615611870576040517f08c379a00000000000000000000000000000000000000000000000000000000081526004018080602001828103825260128152602001807f436f6e747261637420697320706175736564000000000000000000000000000081525060200191505060405180910390fd5b61187a82826125f6565b61188381612617565b5050565b6118a283838360405180602001604052806000815250611eb3565b505050565b6000806118b383611bd5565b90508073ffffffffffffffffffffffffffffffffffffffff168473ffffffffffffffffffffffffffffffffffffffff16148061192257508373ffffffffffffffffffffffffffffffffffffffff1661190a84611018565b73ffffffffffffffffffffffffffffffffffffffff16145b806119335750611932818561234c565b5b91505092915050565b600061194661158b565b82106119ba576040517f08c379a000000000000000000000000000000000000000000000000000000000815260040180806020018281038252600d8152602001807f496e76616c696420696e6465780000000000000000000000000000000000000081525060200191505060405180910390fd5b600882815481106119c757fe5b90600052602060002001549050919050565b60006119e3614512565b6040518060400160405280876000600281106119fb57fe5b6020020151815260200187600160028110611a1257fe5b602002015181525081600001819052506040518060400160405280604051806040016040528088600060028110611a4557fe5b6020020151600060028110611a5657fe5b6020020151815260200188600060028110611a6d57fe5b6020020151600160028110611a7e57fe5b60200201518152508152602001604051806040016040528088600160028110611aa357fe5b6020020151600060028110611ab457fe5b6020020151815260200188600160028110611acb57fe5b6020020151600160028110611adc57fe5b60200201518152508152508160200181905250604051806040016040528085600060028110611b0757fe5b6020020151815260200185600160028110611b1e57fe5b6020020151815250816040018190525060606002604051908082528060200260200182016040528015611b605781602001602082028038833980820191505090505b50905060008090505b6002811015611ba857848160028110611b7e57fe5b6020020151828281518110611b8f57fe5b6020026020010181815250508080600101915050611b69565b506000611bb58284612768565b1415611bc657600192505050611bcd565b6000925050505b949350505050565b60006002600083815260200190815260200160002060009054906101000a900473ffffffffffffffffffffffffffffffffffffffff169050919050565b60008073ffffffffffffffffffffffffffffffffffffffff168273ffffffffffffffffffffffffffffffffffffffff161415611cb6576040517f08c379a000000000000000000000000000000000000000000000000000000000815260040180806020018281038252600f8152602001807f496e76616c69642041646472657373000000000000000000000000000000000081525060200191505060405180910390fd5b611cfd600460008473ffffffffffffffffffffffffffffffffffffffff1673ffffffffffffffffffffffffffffffffffffffff1681526020019081526020016000206128da565b9050919050565b60008060009054906101000a900473ffffffffffffffffffffffffffffffffffffffff16905090565b3373ffffffffffffffffffffffffffffffffffffffff168273ffffffffffffffffffffffffffffffffffffffff161415611db2576040517f08c379a000000000000000000000000000000000000000000000000000000000815260040180806020018281038252602881526020018061485d6028913960400191505060405180910390fd5b80600560003373ffffffffffffffffffffffffffffffffffffffff1673ffffffffffffffffffffffffffffffffffffffff16815260200190815260200160002060008473ffffffffffffffffffffffffffffffffffffffff1673ffffffffffffffffffffffffffffffffffffffff16815260200190815260200160002060006101000a81548160ff0219169083151502179055508173ffffffffffffffffffffffffffffffffffffffff163373ffffffffffffffffffffffffffffffffffffffff167f17307eab39ab6107e8899845ad3d59bd9653f200f220920489ca2b5937696c3183604051808215151515815260200191505060405180910390a35050565b611ebe848484611598565b611eca848484846128e8565b611f3c576040517f08c379a00000000000000000000000000000000000000000000000000000000081526004018080602001828103825260128152602001807f546f6b656e206e6f74207265636569766564000000000000000000000000000081525060200191505060405180910390fd5b50505050565b606060118054600181600116156101000203166002900480601f016020809104026020016040519081016040528092919081815260200182805460018160011615610100020316600290048015611fda5780601f10611faf57610100808354040283529160200191611fda565b820191906000526020600020905b815481529060010190602001808311611fbd57829003601f168201915b5050505050905090565b6060611fef82612ad1565b612061576040517f08c379a00000000000000000000000000000000000000000000000000000000081526004018080602001828103825260148152602001807f546f6b656e20646f6573206e6f7420657869737400000000000000000000000081525060200191505060405180910390fd5b601260008381526020019081526020016000208054600181600116156101000203166002900480601f0160208091040260200160405190810160405280929190818152602001828054600181600116156101000203166002900480156121085780601f106120dd57610100808354040283529160200191612108565b820191906000526020600020905b8154815290600101906020018083116120eb57829003601f168201915b50505050509050919050565b6000848484846040516020018085600260200280838360005b8381101561214857808201518184015260208101905061212d565b505050509050018460026000925b8184101561219c5782846020020151600260200280838360005b8381101561218b578082015181840152602081019050612170565b505050509050019260010192612156565b9250505083600260200280838360005b838110156121c75780820151818401526020810190506121ac565b5050505090500182600260200280838360005b838110156121f55780820151818401526020810190506121da565b505050509050019450505050506040516020818303038152906040528051906020012090506015600082815260200190815260200160002060000160009054906101000a900460ff16156122b1576040517f08c379a00000000000000000000000000000000000000000000000000000000081526004018080602001828103825260168152602001807f536f6c7574696f6e206973206e6f7420756e697175650000000000000000000081525060200191505060405180910390fd5b6122bd858585856119d9565b61232f576040517f08c379a00000000000000000000000000000000000000000000000000000000081526004018080602001828103825260128152602001807f50726f6f66206973206e6f742076616c6964000000000000000000000000000081525060200191505060405180910390fd5b6123398133612b43565b6123438787611748565b50505050505050565b6000600560008473ffffffffffffffffffffffffffffffffffffffff1673ffffffffffffffffffffffffffffffffffffffff16815260200190815260200160002060008373ffffffffffffffffffffffffffffffffffffffff1673ffffffffffffffffffffffffffffffffffffffff16815260200190815260200160002060009054906101000a900460ff16905092915050565b6000809054906101000a900473ffffffffffffffffffffffffffffffffffffffff1673ffffffffffffffffffffffffffffffffffffffff163373ffffffffffffffffffffffffffffffffffffffff1614612485576040517f08c379a00000000000000000000000000000000000000000000000000000000081526004018080602001828103825260258152602001806147ae6025913960400191505060405180910390fd5b600073ffffffffffffffffffffffffffffffffffffffff168173ffffffffffffffffffffffffffffffffffffffff16141561250b576040517f08c379a000000000000000000000000000000000000000000000000000000000815260040180806020018281038252602181526020018061483c6021913960400191505060405180910390fd5b806000806101000a81548173ffffffffffffffffffffffffffffffffffffffff021916908373ffffffffffffffffffffffffffffffffffffffff1602179055507fef07b8974749e71f00d3d636be1c93ba08da679f7eaf39bc980ae00df8f5a3686000809054906101000a900473ffffffffffffffffffffffffffffffffffffffff16604051808273ffffffffffffffffffffffffffffffffffffffff1673ffffffffffffffffffffffffffffffffffffffff16815260200191505060405180910390a150565b6125dd838383612ce9565b6125e78382612f61565b6125f182826130ff565b505050565b61260082826131c6565b61260a82826130ff565b612613816133de565b5050565b61262081612ad1565b612692576040517f08c379a00000000000000000000000000000000000000000000000000000000081526004018080602001828103825260148152602001807f546f6b656e20646f6573206e6f7420657869737400000000000000000000000081525060200191505060405180910390fd5b61273e60118054600181600116156101000203166002900480601f01602080910402602001604051908101604052809291908181526020018280546001816001161561010002031660029004801561272b5780601f106127005761010080835404028352916020019161272b565b820191906000526020600020905b81548152906001019060200180831161270e57829003601f168201915b50505050506127398361342a565b613557565b601260008381526020019081526020016000209080519060200190612764929190614545565b5050565b6000807f30644e72e131a029b85045b68181585d2833e84879b9709143e1f593f000000190506127966145c5565b61279e61359b565b90508060800151516001865101146127b557600080fd5b6127bd61460c565b6040518060400160405280600081526020016000815250905060008090505b865181101561285357838782815181106127f257fe5b60200260200101511061280457600080fd5b6128448261283f8560800151600185018151811061281e57fe5b60200260200101518a858151811061283257fe5b60200260200101516139e8565b613a7a565b915080806001019150506127dc565b5061287681836080015160008151811061286957fe5b6020026020010151613a7a565b90506128bc8560000151866020015161288e84613b2b565b85604001516128a08a60400151613b2b565b87606001516128b28960000151613b2b565b8960200151613bc5565b6128cc57600193505050506128d4565b600093505050505b92915050565b600081600001549050919050565b60006129098473ffffffffffffffffffffffffffffffffffffffff16613d29565b6129165760019050612ac9565b60008473ffffffffffffffffffffffffffffffffffffffff1663150b7a02338887876040518563ffffffff1660e01b8152600401808573ffffffffffffffffffffffffffffffffffffffff1673ffffffffffffffffffffffffffffffffffffffff1681526020018473ffffffffffffffffffffffffffffffffffffffff1673ffffffffffffffffffffffffffffffffffffffff16815260200183815260200180602001828103825283818151815260200191508051906020019080838360005b838110156129f15780820151818401526020810190506129d6565b50505050905090810190601f168015612a1e5780820380516001836020036101000a031916815260200191505b5095505050505050602060405180830381600087803b158015612a4057600080fd5b505af1158015612a54573d6000803e3d6000fd5b505050506040513d6020811015612a6a57600080fd5b8101908080519060200190929190505050905063150b7a0260e01b7bffffffffffffffffffffffffffffffffffffffffffffffffffffffff1916817bffffffffffffffffffffffffffffffffffffffffffffffffffffffff1916149150505b949350505050565b6000806002600084815260200190815260200160002060009054906101000a900473ffffffffffffffffffffffffffffffffffffffff169050600073ffffffffffffffffffffffffffffffffffffffff168173ffffffffffffffffffffffffffffffffffffffff161415915050919050565b6015600083815260200190815260200160002060000160009054906101000a900460ff1615612bda576040517f08c379a00000000000000000000000000000000000000000000000000000000081526004018080602001828103825260168152602001807f536f6c7574696f6e206973206e6f7420756e697175650000000000000000000081525060200191505060405180910390fd5b612bf06001601454613d7490919063ffffffff16565b60148190555060016015600084815260200190815260200160002060000160006101000a81548160ff021916908315150217905550806015600084815260200190815260200160002060000160016101000a81548173ffffffffffffffffffffffffffffffffffffffff021916908373ffffffffffffffffffffffffffffffffffffffff1602179055507f01d5f9f5a890e5385b4f1d07d3c8c1f739f82bb433ed461d4551b7af3edc63408282604051808381526020018273ffffffffffffffffffffffffffffffffffffffff1673ffffffffffffffffffffffffffffffffffffffff1681526020019250505060405180910390a15050565b600073ffffffffffffffffffffffffffffffffffffffff168273ffffffffffffffffffffffffffffffffffffffff161415612d8c576040517f08c379a000000000000000000000000000000000000000000000000000000000815260040180806020018281038252600f8152602001807f496e76616c69642041646472657373000000000000000000000000000000000081525060200191505060405180910390fd5b612d9581611bd5565b73ffffffffffffffffffffffffffffffffffffffff168373ffffffffffffffffffffffffffffffffffffffff1614612e18576040517f08c379a00000000000000000000000000000000000000000000000000000000081526004018080602001828103825260258152602001806147896025913960400191505060405180910390fd5b612e2181613dfc565b816002600083815260200190815260200160002060006101000a81548173ffffffffffffffffffffffffffffffffffffffff021916908373ffffffffffffffffffffffffffffffffffffffff160217905550612eba600460008473ffffffffffffffffffffffffffffffffffffffff1673ffffffffffffffffffffffffffffffffffffffff168152602001908152602001600020613eba565b612f01600460008573ffffffffffffffffffffffffffffffffffffffff1673ffffffffffffffffffffffffffffffffffffffff168152602001908152602001600020613ed0565b808273ffffffffffffffffffffffffffffffffffffffff168473ffffffffffffffffffffffffffffffffffffffff167fddf252ad1be2c89b69c2b068fc378daa952ba7f163c4a11628f55a4df523b3ef60405160405180910390a4505050565b6000612fb96001600660008673ffffffffffffffffffffffffffffffffffffffff1673ffffffffffffffffffffffffffffffffffffffff16815260200190815260200160002080549050613ef390919063ffffffff16565b90506000600760008481526020019081526020016000205490508181146130a6576000600660008673ffffffffffffffffffffffffffffffffffffffff1673ffffffffffffffffffffffffffffffffffffffff168152602001908152602001600020838154811061302657fe5b9060005260206000200154905080600660008773ffffffffffffffffffffffffffffffffffffffff1673ffffffffffffffffffffffffffffffffffffffff168152602001908152602001600020838154811061307e57fe5b9060005260206000200181905550816007600083815260200190815260200160002081905550505b600660008573ffffffffffffffffffffffffffffffffffffffff1673ffffffffffffffffffffffffffffffffffffffff1681526020019081526020016000208054809190600190036130f89190614626565b5050505050565b600660008373ffffffffffffffffffffffffffffffffffffffff1673ffffffffffffffffffffffffffffffffffffffff168152602001908152602001600020805490506007600083815260200190815260200160002081905550600660008373ffffffffffffffffffffffffffffffffffffffff1673ffffffffffffffffffffffffffffffffffffffff1681526020019081526020016000208190806001815401808255809150509060018203906000526020600020016000909192909190915055505050565b600073ffffffffffffffffffffffffffffffffffffffff168273ffffffffffffffffffffffffffffffffffffffff161415613269576040517f08c379a000000000000000000000000000000000000000000000000000000000815260040180806020018281038252600f8152602001807f496e76616c69642041646472657373000000000000000000000000000000000081525060200191505060405180910390fd5b61327281612ad1565b156132e5576040517f08c379a00000000000000000000000000000000000000000000000000000000081526004018080602001828103825260148152602001807f546f6b656e20616c72656164792065786973747300000000000000000000000081525060200191505060405180910390fd5b816002600083815260200190815260200160002060006101000a81548173ffffffffffffffffffffffffffffffffffffffff021916908373ffffffffffffffffffffffffffffffffffffffff16021790555061337e600460008473ffffffffffffffffffffffffffffffffffffffff1673ffffffffffffffffffffffffffffffffffffffff168152602001908152602001600020613eba565b808273ffffffffffffffffffffffffffffffffffffffff16600073ffffffffffffffffffffffffffffffffffffffff167fddf252ad1be2c89b69c2b068fc378daa952ba7f163c4a11628f55a4df523b3ef60405160405180910390a45050565b6008805490506009600083815260200190815260200160002081905550600881908060018154018082558091505090600182039060005260206000200160009091929091909150555050565b60606000821415613472576040518060400160405280600181526020017f30000000000000000000000000000000000000000000000000000000000000008152509050613552565b600082905060005b6000821461349c578080600101915050600a828161349457fe5b04915061347a565b6060816040519080825280601f01601f1916602001820160405280156134d15781602001600182028038833980820191505090505b50905060006001830390505b6000861461354a57600a86816134ef57fe5b0660300160f81b8282806001900393508151811061350957fe5b60200101907effffffffffffffffffffffffffffffffffffffffffffffffffffffffffffff1916908160001a905350600a868161354257fe5b0495506134dd565b819450505050505b919050565b60606135938383604051806020016040528060008152506040518060200160405280600081525060405180602001604052806000815250613f3d565b905092915050565b6135a36145c5565b60405180604001604052807f1936c240636390dc823e3a728e94b208eb53c6756d81da57ec3425e05d43ac1081526020017f2d70ff78e8216bf29d58923a686d9738278b8ce2fd822e197c85b09286d155668152508160000181905250604051806040016040528060405180604001604052807f2b4daf047abe2e7f0b311118c1b963b63695dc0d769cea78849604434de055bf81526020017f29c13ecb6f33dbc4b3b8a02e2e255511ce4c26a8a2f299efcc94caf2de4fce00815250815260200160405180604001604052807f1da9020008df7f549751f8a251af3b2dc4a2ad3e0870de54acaedd9fc1b47e1781526020017f25ea0d7e2b29de431b86a943db30dbf4d98f68df9ca8a9628d14d1591e817d908152508152508160200181905250604051806040016040528060405180604001604052807f011016e22ae045444f50fb80f246ec486c7e02af09132cd38c4fcf484983e4f281526020017ee83c788c2878d1d5eba3ed49b0d81e4c0487dedc3e4d1c2baab5833785b62f815250815260200160405180604001604052807f05eb89e741ed5b5d611cebf92d1ed02cd6f3311089f0d400df7d9ced5a48fd4181526020017f132a90a3b0d369ccd66e2a5ba04a935e44d8ad5dca93a76bba592a578130a9118152508152508160400181905250604051806040016040528060405180604001604052807f065f6a3323a2abffd621fc263f348eb914904b68d5897729ae34a6b9d33f085281526020017f0c3b60f59d3bd50328a04c0ff6d979199685d0526f89f6ac29d6174ce24707a2815250815260200160405180604001604052807f26e7ebce2b44efef6b6315938e33f0a8ecc82dbad635c9efa681ed85bbb5998281526020017f12e0f3721230a0f38f6c9913048d5230fd2615ef3ff7f6ee4b20dfe0bdea1a868152508152508160600181905250600360405190808252806020026020018201604052801561388957816020015b613876614652565b81526020019060019003908161386e5790505b50816080018190525060405180604001604052807f1ef8d5d70234aa3e3d8fc4e3f1ca01c703182580b581106798f05b35fd5082c081526020017f2e468046d4ae35138e2032224925d5389712e5ca5e68f4d9c1e1858e7d65602d81525081608001516000815181106138f857fe5b602002602001018190525060405180604001604052807f0cefae0e3fa6aa25a4485ab7b21d32794d3431a4e4a5ca82ea427b831534c2c981526020017f23e3d2035b70884e547638b111870f5957f58ad8068f7a21470164ad361e1e88815250816080015160018151811061396957fe5b602002602001018190525060405180604001604052807f030ffe78ec3de150e8688db619bde78e21e894754e6be5ed83742677628b24bc81526020017f053392f88cfa9092dfbc0bd199d8159e56207779473c24fc601eff91bcd345ca81525081608001516002815181106139da57fe5b602002602001018190525090565b6139f061460c565b6139f861466c565b836000015181600060038110613a0a57fe5b602002018181525050836020015181600160038110613a2557fe5b6020020181815250508281600260038110613a3c57fe5b602002018181525050600060608360808460076107d05a03fa90508060008114613a6557613a67565bfe5b5080613a7257600080fd5b505092915050565b613a8261460c565b613a8a61468e565b836000015181600060048110613a9c57fe5b602002018181525050836020015181600160048110613ab757fe5b602002018181525050826000015181600260048110613ad257fe5b602002018181525050826020015181600360048110613aed57fe5b602002018181525050600060608360c08460066107d05a03fa90508060008114613b1657613b18565bfe5b5080613b2357600080fd5b505092915050565b613b3361460c565b60007f30644e72e131a029b85045b68181585d97816a916871ca8d3c208c16d87cfd47905060008360000151148015613b70575060008360200151145b15613b94576040518060400160405280600081526020016000815250915050613bc0565b60405180604001604052808460000151815260200182856020015181613bb657fe5b0683038152509150505b919050565b600060606004604051908082528060200260200182016040528015613c0457816020015b613bf1614652565b815260200190600190039081613be95790505b50905060606004604051908082528060200260200182016040528015613c4457816020015b613c316146b0565b815260200190600190039081613c295790505b5090508a82600081518110613c5557fe5b60200260200101819052508882600181518110613c6e57fe5b60200260200101819052508682600281518110613c8757fe5b60200260200101819052508482600381518110613ca057fe5b60200260200101819052508981600081518110613cb957fe5b60200260200101819052508781600181518110613cd257fe5b60200260200101819052508581600281518110613ceb57fe5b60200260200101819052508381600381518110613d0457fe5b6020026020010181905250613d1982826141ff565b9250505098975050505050505050565b60008060007fc5d2460186f7233c927e7db2dcc703c0e500b653ca82273b7bfad8045d85a47060001b9050833f9150808214158015613d6b57506000801b8214155b92505050919050565b600080828401905083811015613df2576040517f08c379a000000000000000000000000000000000000000000000000000000000815260040180806020018281038252601b8152602001807f536166654d6174683a206164646974696f6e206f766572666c6f77000000000081525060200191505060405180910390fd5b8091505092915050565b600073ffffffffffffffffffffffffffffffffffffffff166003600083815260200190815260200160002060009054906101000a900473ffffffffffffffffffffffffffffffffffffffff1673ffffffffffffffffffffffffffffffffffffffff1614613eb75760006003600083815260200190815260200160002060006101000a81548173ffffffffffffffffffffffffffffffffffffffff021916908373ffffffffffffffffffffffffffffffffffffffff1602179055505b50565b6001816000016000828254019250508190555050565b613ee860018260000154613ef390919063ffffffff16565b816000018190555050565b6000613f3583836040518060400160405280601e81526020017f536166654d6174683a207375627472616374696f6e206f766572666c6f770000815250614452565b905092915050565b6060808690506060869050606086905060608690506060869050606081518351855187518951010101016040519080825280601f01601f191660200182016040528015613f995781602001600182028038833980820191505090505b509050606081905060008090506000809050600090505b885181101561401e57888181518110613fc557fe5b602001015160f81c60f81b838380600101945081518110613fe257fe5b60200101907effffffffffffffffffffffffffffffffffffffffffffffffffffffffffffff1916908160001a9053508080600101915050613fb0565b600090505b87518110156140915787818151811061403857fe5b602001015160f81c60f81b83838060010194508151811061405557fe5b60200101907effffffffffffffffffffffffffffffffffffffffffffffffffffffffffffff1916908160001a9053508080600101915050614023565b600090505b8651811015614104578681815181106140ab57fe5b602001015160f81c60f81b8383806001019450815181106140c857fe5b60200101907effffffffffffffffffffffffffffffffffffffffffffffffffffffffffffff1916908160001a9053508080600101915050614096565b600090505b85518110156141775785818151811061411e57fe5b602001015160f81c60f81b83838060010194508151811061413b57fe5b60200101907effffffffffffffffffffffffffffffffffffffffffffffffffffffffffffff1916908160001a9053508080600101915050614109565b600090505b84518110156141ea5784818151811061419157fe5b602001015160f81c60f81b8383806001019450815181106141ae57fe5b60200101907effffffffffffffffffffffffffffffffffffffffffffffffffffffffffffff1916908160001a905350808060010191505061417c565b82995050505050505050505095945050505050565b6000815183511461420f57600080fd5b600083519050600060068202905060608160405190808252806020026020018201604052801561424e5781602001602082028038833980820191505090505b50905060008090505b838110156143f45786818151811061426b57fe5b60200260200101516000015182600060068402018151811061428957fe5b6020026020010181815250508681815181106142a157fe5b6020026020010151602001518260016006840201815181106142bf57fe5b6020026020010181815250508581815181106142d757fe5b6020026020010151600001516000600281106142ef57fe5b602002015182600260068402018151811061430657fe5b60200260200101818152505085818151811061431e57fe5b60200260200101516000015160016002811061433657fe5b602002015182600360068402018151811061434d57fe5b60200260200101818152505085818151811061436557fe5b60200260200101516020015160006002811061437d57fe5b602002015182600460068402018151811061439457fe5b6020026020010181815250508581815181106143ac57fe5b6020026020010151602001516001600281106143c457fe5b60200201518260056006840201815181106143db57fe5b6020026020010181815250508080600101915050614257565b506143fd6146d6565b6000602082602086026020860160086107d05a03fa9050806000811461442257614424565bfe5b508061442f57600080fd5b60008260006001811061443e57fe5b602002015114159550505050505092915050565b60008383111582906144ff576040517f08c379a00000000000000000000000000000000000000000000000000000000081526004018080602001828103825283818151815260200191508051906020019080838360005b838110156144c45780820151818401526020810190506144a9565b50505050905090810190601f1680156144f15780820380516001836020036101000a031916815260200191505b509250505060405180910390fd5b5060008385039050809150509392505050565b6040518060600160405280614525614652565b81526020016145326146b0565b815260200161453f614652565b81525090565b828054600181600116156101000203166002900490600052602060002090601f016020900481019282601f1061458657805160ff19168380011785556145b4565b828001600101855582156145b4579182015b828111156145b3578251825591602001919060010190614598565b5b5090506145c191906146f8565b5090565b6040518060a001604052806145d8614652565b81526020016145e56146b0565b81526020016145f26146b0565b81526020016145ff6146b0565b8152602001606081525090565b604051806040016040528060008152602001600081525090565b81548183558181111561464d5781836000526020600020918201910161464c91906146f8565b5b505050565b604051806040016040528060008152602001600081525090565b6040518060600160405280600390602082028038833980820191505090505090565b6040518060800160405280600490602082028038833980820191505090505090565b60405180604001604052806146c361471d565b81526020016146d061471d565b81525090565b6040518060200160405280600190602082028038833980820191505090505090565b61471a91905b808211156147165760008160009055506001016146fe565b5090565b90565b604051806040016040528060029060208202803883398082019150509050509056fe6d73672e73656e646572206d75737420626520746865206f776e6572206f662074686520636f6e7472616374206f72206d75737420626520617070726f76656420666f7220616c6c2e41646472657373206973206e6f7420746865206f776e6572206f662074686520746f6b656e43616c6c6572206d757374206265206f776e6572206f662074686520636f6e74726163742e417070726f7665722063616e6e6f7420626520746865206f776e6572206f662074686520746f6b656e537065636966696564207061757365207374617465206d75737420626520646966666572656e74207468616e2063757272656e742070617573652073746174654e6577206f776e6572206d7573742062652061207265616c20616464726573732e43616e6e6f742073657420617070726f76616c20666f7220796f7572206f776e20746f6b656e732ea265627a7a72315820840cee435d95e20e44b43d18dbf8d0a6367ae7ad6804032fdeba3d235776e5db64736f6c6343000510003268747470733a2f2f73332d75732d776573742d322e616d617a6f6e6177732e636f6d2f756461636974792d626c6f636b636861696e2f63617073746f6e652f",
  "source": "// Solution Square Verifier\npragma solidity >=0.4.21 <0.6.0;\n\n// TODO define a contract call to the zokrates generated solidity contract <Verifier> or <renamedVerifier>\nimport \"./ERC721Mintable.sol\";\nimport \"./Verifier.sol\";\nimport './../../node_modules/openzeppelin-solidity/contracts/math/SafeMath.sol';\n\n// TODO define another contract named SolnSquareVerifier that inherits from your ERC721Mintable class\ncontract SolnSquareVerifier is ERC721Mintable, Verifier {\n\n    struct Solution {\n        bool isUsed;\n        address verifierAddress;\n    }\n    uint256 solutionCount = 0;\n    mapping(bytes32 => Solution) private uniqueSolutions;\n\n    event SolutionAdded(bytes32 key, address verifierAddress);\n\n    function addSolution(bytes32 solutionKey, address verifierAddress) internal {\n        require(!uniqueSolutions[solutionKey].isUsed, \"Solution is not unique\");\n        solutionCount = solutionCount.add(1);\n        uniqueSolutions[solutionKey].isUsed = true;\n        uniqueSolutions[solutionKey].verifierAddress = verifierAddress;\n        emit SolutionAdded(solutionKey, verifierAddress);\n    }\n\n    function mintVerify\n    (\n        address to,\n        uint256 tokenId,\n        uint256[2] memory a,\n        uint256[2][2] memory b,\n        uint256[2] memory c,\n        uint256[2] memory inputs\n    ) public {\n        bytes32 key = keccak256(abi.encodePacked(a, b, c, inputs));\n        require(!uniqueSolutions[key].isUsed, \"Solution is not unique\");\n        require(verifyTx(a, b, c, inputs), \"Proof is not valid\");\n        addSolution(key, msg.sender);\n        super.mint(to, tokenId);\n    }\n}",
  "sourcePath": "/home/artur/Documents/Blockchain-Capstone/eth-contracts/contracts/SolnSquareVerifier.sol",
  "compiler": {
    "name": "solc",
    "version": "0.5.16+commit.9c3226ce.Emscripten.clang"
  },
  "schemaVersion": "3.3.0",
  "updatedAt": "2020-10-16T18:14:26.695Z",
  "devdoc": {
    "methods": {
      "_isApprovedOrOwner(address,uint256)": {
        "details": "Returns whether the given spender can transfer a given token ID",
        "params": {
          "spender": "address of the spender to query",
          "tokenId": "uint256 ID of the token to be transferred"
        },
        "return": "bool whether the msg.sender is approved for the given token ID, is an operator of the owner, or is the owner of the token"
      },
      "approve(address,uint256)": {
        "details": "Approves another address to transfer the given token ID",
        "params": {
          "to": "address that is approved to transfer token",
          "tokenId": "uint256 that you would like to set approval for"
        }
      },
      "getApproved(uint256)": {
        "details": "Get approved address for a given token",
        "params": {
          "tokenId": "uint256 of the token to get approved address for"
        },
        "return": "address which can transfer the given token"
      },
      "getBaseTokenURI()": {
        "details": "Get the base URI of the token",
        "return": "String of the base URI of the token"
      },
      "getName()": {
        "details": "Get the name of the token",
        "return": "String of the name of the token"
      },
      "getOwner()": {
        "details": "Gets the address of the contract owner",
        "return": "address of the contract owner"
      },
      "getSymbol()": {
        "details": "Get the symbol of the token",
        "return": "String of the symbol of the token"
      },
      "isApprovedForAll(address,address)": {
        "details": "Tells whether an operator is approved by a given owner",
        "params": {
          "operator": "operator address which you want to query the approval of",
          "owner": "owner address which you want to query the approval of"
        },
        "return": "bool whether the given operator is approved by the given owner"
      },
      "mint(address,uint256)": {
        "details": "Mint new token",
        "params": {
          "to": "address of the owner of the newly minted token",
          "tokenId": "id of the newly minted token"
        }
      },
      "setApprovalForAll(address,bool)": {
        "details": "Sets or unsets the approval of a given operator An operator is allowed to transfer all tokens of the sender on their behalf",
        "params": {
          "approved": "representing the status of the approval to be set",
          "to": "operator address to set the approval"
        }
      },
      "setPaused(bool)": {
        "details": "Pause or Unpause the contract",
        "params": {
          "status": "The pause state you would like the contract to be in"
        }
      },
      "supportsInterface(bytes4)": {
        "details": "implement supportsInterface(bytes4) using a lookup table"
      },
      "tokenByIndex(uint256)": {
        "details": "Gets the token ID at a given index of all the tokens in this contract Reverts if the index is greater or equal to the total number of tokens",
        "params": {
          "index": "uint256 representing the index to be accessed of the tokens list"
        },
        "return": "uint256 token ID at the given index of the tokens list"
      },
      "tokenOfOwnerByIndex(address,uint256)": {
        "details": "Gets the token ID at a given index of the tokens list of the requested owner",
        "params": {
          "index": "uint256 representing the index to be accessed of the requested tokens list",
          "owner": "address owning the tokens list to be accessed"
        },
        "return": "uint256 token ID at the given index of the tokens list owned by the requested address"
      },
      "tokenURI(uint256)": {
        "details": "Get the URI of the token",
        "params": {
          "tokenId": "as uint256 that you want the URI for"
        },
        "return": "String of the URI of the token"
      },
      "totalSupply()": {
        "details": "Gets the total amount of tokens stored by the contract",
        "return": "uint256 representing the total amount of tokens"
      },
      "transferOwnership(address)": {
        "details": "Transfer ownership of the contract to a new owner",
        "params": {
          "newOwner": "address which you want to transfer contract ownership to"
        }
      }
    }
  },
  "userdoc": {
    "methods": {}
  }
}